{
  "contractName": "Myecrecover",
  "abi": [
    {
      "inputs": [],
      "stateMutability": "nonpayable",
      "type": "constructor"
    },
    {
      "inputs": [
        {
          "internalType": "bytes32",
          "name": "messageHash",
          "type": "bytes32"
        },
        {
          "internalType": "uint8",
          "name": "v",
          "type": "uint8"
        },
        {
          "internalType": "bytes32",
          "name": "r",
          "type": "bytes32"
        },
        {
          "internalType": "bytes32",
          "name": "s",
          "type": "bytes32"
        }
      ],
      "name": "myEcrecover",
      "outputs": [
        {
          "internalType": "address",
          "name": "",
          "type": "address"
        }
      ],
      "stateMutability": "pure",
      "type": "function"
    }
  ],
  "bytecode": "0x608060405234801561001057600080fd5b5061028b806100206000396000f3fe608060405234801561001057600080fd5b506004361061002b5760003560e01c806350ec85f514610030575b600080fd5b61004a6004803603810190610045919061012f565b610060565b60405161005791906101d7565b60405180910390f35b6000600185858585604051600081526020016040526040516100859493929190610210565b6020604051602081039080840390855afa1580156100a7573d6000803e3d6000fd5b505050602060405103519050949350505050565b600080fd5b6000819050919050565b6100d3816100c0565b81146100de57600080fd5b50565b6000813590506100f0816100ca565b92915050565b600060ff82169050919050565b61010c816100f6565b811461011757600080fd5b50565b60008135905061012981610103565b92915050565b60008060008060808587031215610149576101486100bb565b5b6000610157878288016100e1565b94505060206101688782880161011a565b9350506040610179878288016100e1565b925050606061018a878288016100e1565b91505092959194509250565b600073ffffffffffffffffffffffffffffffffffffffff82169050919050565b60006101c182610196565b9050919050565b6101d1816101b6565b82525050565b60006020820190506101ec60008301846101c8565b92915050565b6101fb816100c0565b82525050565b61020a816100f6565b82525050565b600060808201905061022560008301876101f2565b6102326020830186610201565b61023f60408301856101f2565b61024c60608301846101f2565b9594505050505056fea26469706673582212202432880d01d4320d46b2ffdf9b0382bcef83124d69cadf5e047d02a152ab10c164736f6c63430008130033",
  "immutableReferences": {},
  "source": "// SPDX-License-Identifier: MIT\npragma solidity ^0.8.19;\n\nimport \"./register.sol\";\n\ncontract Myecrecover {\n    constructor() {}\n    function myEcrecover(\n        bytes32 messageHash,\n        uint8 v,\n        bytes32 r,\n        bytes32 s\n    ) public pure returns (address) {\n        return ecrecover(messageHash, v, r, s);\n    }\n}\n\ncontract Verify {\n    Register public registerContract;\n\n    constructor(address _registerAddress) {\n        registerContract = Register(_registerAddress);\n    }\n    event RandomNumberRecorded(bytes32 randomNumber);\n    event VRSOutput(uint8 v, bytes32 r, bytes32 s);\n    event Log(string message);\n    event LogBytes(bytes message);\n    event Loguint8(uint8 message);\n    event Logbytes32(bytes32 message);\n\n    function verify(\n        address applicationAddress,\n        bytes32 messageHash,\n        bytes memory signature,\n        uint8 v,\n        bytes32 expectedRandom\n    ) public returns (bool) {\n        bytes memory registeredKey = registerContract.getPublicKey(\n            applicationAddress\n        );\n        address signer = recoverSigner(messageHash, signature, v);\n        require(\n            signer == publicKeyToAddress(registeredKey),\n            \"Invalid signature\"\n        );\n        bytes32 computedRandom = keccak256(signature);\n        require(computedRandom == expectedRandom, \"Invalid random number\");\n        emit RandomNumberRecorded(computedRandom);\n        return true;\n    }\n\n    function publicKeyToAddress(\n        bytes memory publicKey\n    ) internal pure returns (address addr) {\n        bytes32 hash = keccak256(publicKey);\n        assembly {\n            mstore(0, hash)\n            addr := mload(0)\n        }\n    }\n\n    Myecrecover public foo;\n    \n    function recoverSigner(\n        bytes32 messageHash,\n        bytes memory sig,\n        uint8 v\n    ) internal pure returns (address) {\n        (bytes32 r, bytes32 s) = splitSignature(sig);\n        return ecrecover(messageHash, v, r, s);\n    }\n\n    function splitSignature(\n        bytes memory sig\n    ) internal pure returns (bytes32 r, bytes32 s) {\n        // Check the signature length\n        // - case 65: r,s,v signature (standard)\n        // - case 64: r,vs signature (cf https://eips.ethereum.org/EIPS/eip-2098)\n        if (sig.length == 65) {\n            // ecrecover takes the signature parameters, and the only way to get them\n            // currently is to use assembly.\n            // solhint-disable-next-line no-inline-assembly\n            assembly {\n                r := mload(add(sig, 0x20))\n                s := mload(add(sig, 0x40))\n            }\n        } else if (sig.length == 64) {\n            // ecrecover takes the signature parameters, and the only way to get them\n            // currently is to use assembly.\n            // solhint-disable-next-line no-inline-assembly\n            assembly {\n                r := mload(add(sig, 0x20))\n                s := mload(add(sig, 0x40))\n            }\n        } else {\n            revert(\"ECDSA: invalid signature length\");\n        }\n        return (r, s);\n    }\n}\n",
  "sourcePath": "/home/farmer/Downloads/vrf_contract/solidity_project/contracts/verify.sol",
  "compiler": {
    "name": "solc",
    "version": "0.8.19+commit.7dd6d404.Emscripten.clang"
  },
  "schemaVersion": "3.4.16",
  "updatedAt": "2023-09-21T18:04:25.578Z",
  "devdoc": {
    "kind": "dev",
    "methods": {},
    "version": 1
  },
  "userdoc": {
    "kind": "user",
    "methods": {},
    "version": 1
  }
}