{
  "contractName": "Register",
  "abi": [
    {
      "inputs": [],
      "stateMutability": "nonpayable",
      "type": "constructor"
    },
    {
      "anonymous": false,
      "inputs": [
        {
          "indexed": true,
          "internalType": "address",
          "name": "user",
          "type": "address"
        },
        {
          "indexed": false,
          "internalType": "bytes",
          "name": "publicKey",
          "type": "bytes"
        }
      ],
      "name": "Registered",
      "type": "event"
    },
    {
      "inputs": [
        {
          "internalType": "bytes",
          "name": "publicKey",
          "type": "bytes"
        }
      ],
      "name": "register",
      "outputs": [],
      "stateMutability": "nonpayable",
      "type": "function"
    },
    {
      "inputs": [
        {
          "internalType": "address",
          "name": "user",
          "type": "address"
        }
      ],
      "name": "getPublicKey",
      "outputs": [
        {
          "internalType": "bytes",
          "name": "",
          "type": "bytes"
        }
      ],
      "stateMutability": "view",
      "type": "function",
      "constant": true
    }
  ],
  "bytecode": "0x608060405234801561001057600080fd5b506107e1806100206000396000f3fe608060405234801561001057600080fd5b50600436106100365760003560e01c806382fbdc9c1461003b578063857cdbb814610057575b600080fd5b6100556004803603810190610050919061034e565b610087565b005b610071600480360381019061006c91906103f5565b610124565b60405161007e91906104a1565b60405180910390f35b806000803373ffffffffffffffffffffffffffffffffffffffff1673ffffffffffffffffffffffffffffffffffffffff16815260200190815260200160002090816100d291906106d9565b503373ffffffffffffffffffffffffffffffffffffffff167fb5ca2dfb0bd25603299b76fefa9fbe3abdc9f951bdfb7ffd208f93ab7f8e203c8260405161011991906104a1565b60405180910390a250565b60606000808373ffffffffffffffffffffffffffffffffffffffff1673ffffffffffffffffffffffffffffffffffffffff168152602001908152602001600020805461016f906104f2565b80601f016020809104026020016040519081016040528092919081815260200182805461019b906104f2565b80156101e85780601f106101bd576101008083540402835291602001916101e8565b820191906000526020600020905b8154815290600101906020018083116101cb57829003601f168201915b50505050509050919050565b6000604051905090565b600080fd5b600080fd5b600080fd5b600080fd5b6000601f19601f8301169050919050565b7f4e487b7100000000000000000000000000000000000000000000000000000000600052604160045260246000fd5b61025b82610212565b810181811067ffffffffffffffff8211171561027a57610279610223565b5b80604052505050565b600061028d6101f4565b90506102998282610252565b919050565b600067ffffffffffffffff8211156102b9576102b8610223565b5b6102c282610212565b9050602081019050919050565b82818337600083830152505050565b60006102f16102ec8461029e565b610283565b90508281526020810184848401111561030d5761030c61020d565b5b6103188482856102cf565b509392505050565b600082601f83011261033557610334610208565b5b81356103458482602086016102de565b91505092915050565b600060208284031215610364576103636101fe565b5b600082013567ffffffffffffffff81111561038257610381610203565b5b61038e84828501610320565b91505092915050565b600073ffffffffffffffffffffffffffffffffffffffff82169050919050565b60006103c282610397565b9050919050565b6103d2816103b7565b81146103dd57600080fd5b50565b6000813590506103ef816103c9565b92915050565b60006020828403121561040b5761040a6101fe565b5b6000610419848285016103e0565b91505092915050565b600081519050919050565b600082825260208201905092915050565b60005b8381101561045c578082015181840152602081019050610441565b60008484015250505050565b600061047382610422565b61047d818561042d565b935061048d81856020860161043e565b61049681610212565b840191505092915050565b600060208201905081810360008301526104bb8184610468565b905092915050565b7f4e487b7100000000000000000000000000000000000000000000000000000000600052602260045260246000fd5b6000600282049050600182168061050a57607f821691505b60208210810361051d5761051c6104c3565b5b50919050565b60008190508160005260206000209050919050565b60006020601f8301049050919050565b600082821b905092915050565b6000600883026105857fffffffffffffffffffffffffffffffffffffffffffffffffffffffffffffffff82610548565b61058f8683610548565b95508019841693508086168417925050509392505050565b6000819050919050565b6000819050919050565b60006105d66105d16105cc846105a7565b6105b1565b6105a7565b9050919050565b6000819050919050565b6105f0836105bb565b6106046105fc826105dd565b848454610555565b825550505050565b600090565b61061961060c565b6106248184846105e7565b505050565b5b818110156106485761063d600082610611565b60018101905061062a565b5050565b601f82111561068d5761065e81610523565b61066784610538565b81016020851015610676578190505b61068a61068285610538565b830182610629565b50505b505050565b600082821c905092915050565b60006106b060001984600802610692565b1980831691505092915050565b60006106c9838361069f565b9150826002028217905092915050565b6106e282610422565b67ffffffffffffffff8111156106fb576106fa610223565b5b61070582546104f2565b61071082828561064c565b600060209050601f8311600181146107435760008415610731578287015190505b61073b85826106bd565b8655506107a3565b601f19841661075186610523565b60005b8281101561077957848901518255600182019150602085019450602081019050610754565b868310156107965784890151610792601f89168261069f565b8355505b6001600288020188555050505b50505050505056fea2646970667358221220d8bd374b27594aec6a2a921a5b858cffb65f384058a6cffa7c253340c198488164736f6c63430008130033",
  "immutableReferences": {},
  "source": "// SPDX-License-Identifier: MIT\npragma solidity ^0.8.19;\n\ncontract Register {\n    mapping(address => bytes) private _registrations;\n    event Registered(address indexed user, bytes publicKey);\n    constructor() {}\n    function register(bytes memory publicKey) public {\n        _registrations[msg.sender] = publicKey;\n        emit Registered(msg.sender, publicKey);\n    }\n\n    function getPublicKey(address user) external view returns (bytes memory) {\n        return _registrations[user];\n    }\n}\n",
  "sourcePath": "/home/farmer/Downloads/vrf_contract/solidity_project/contracts/register.sol",
  "compiler": {
    "name": "solc",
    "version": "0.8.19+commit.7dd6d404.Emscripten.clang"
  },
  "schemaVersion": "3.4.16",
  "updatedAt": "2023-09-21T18:30:12.688Z",
  "networkType": "ethereum",
  "devdoc": {
    "kind": "dev",
    "methods": {},
    "version": 1
  },
  "userdoc": {
    "kind": "user",
    "methods": {},
    "version": 1
  }
}