{
  "contractName": "Register",
  "abi": [
    {
      "inputs": [],
      "stateMutability": "nonpayable",
      "type": "constructor"
    },
    {
      "anonymous": false,
      "inputs": [
        {
          "indexed": true,
          "internalType": "address",
          "name": "user",
          "type": "address"
        },
        {
          "indexed": false,
          "internalType": "bytes",
          "name": "vrfKey",
          "type": "bytes"
        }
      ],
      "name": "Registered",
      "type": "event"
    },
    {
      "inputs": [
        {
          "internalType": "bytes",
          "name": "vrfKey",
          "type": "bytes"
        }
      ],
      "name": "register",
      "outputs": [],
      "stateMutability": "nonpayable",
      "type": "function"
    },
    {
      "inputs": [
        {
          "internalType": "address",
          "name": "user",
          "type": "address"
        }
      ],
      "name": "getVRFKey",
      "outputs": [
        {
          "internalType": "bytes",
          "name": "",
          "type": "bytes"
        }
      ],
      "stateMutability": "view",
      "type": "function"
    }
  ],
  "bytecode": "0x608060405234801561001057600080fd5b506107e1806100206000396000f3fe608060405234801561001057600080fd5b50600436106100365760003560e01c80630c36b6261461003b57806382fbdc9c1461006b575b600080fd5b61005560048036038101906100509190610266565b610087565b6040516100629190610323565b60405180910390f35b6100856004803603810190610080919061047a565b610157565b005b60606000808373ffffffffffffffffffffffffffffffffffffffff1673ffffffffffffffffffffffffffffffffffffffff16815260200190815260200160002080546100d2906104f2565b80601f01602080910402602001604051908101604052809291908181526020018280546100fe906104f2565b801561014b5780601f106101205761010080835404028352916020019161014b565b820191906000526020600020905b81548152906001019060200180831161012e57829003601f168201915b50505050509050919050565b806000803373ffffffffffffffffffffffffffffffffffffffff1673ffffffffffffffffffffffffffffffffffffffff16815260200190815260200160002090816101a291906106d9565b503373ffffffffffffffffffffffffffffffffffffffff167fb5ca2dfb0bd25603299b76fefa9fbe3abdc9f951bdfb7ffd208f93ab7f8e203c826040516101e99190610323565b60405180910390a250565b6000604051905090565b600080fd5b600080fd5b600073ffffffffffffffffffffffffffffffffffffffff82169050919050565b600061023382610208565b9050919050565b61024381610228565b811461024e57600080fd5b50565b6000813590506102608161023a565b92915050565b60006020828403121561027c5761027b6101fe565b5b600061028a84828501610251565b91505092915050565b600081519050919050565b600082825260208201905092915050565b60005b838110156102cd5780820151818401526020810190506102b2565b60008484015250505050565b6000601f19601f8301169050919050565b60006102f582610293565b6102ff818561029e565b935061030f8185602086016102af565b610318816102d9565b840191505092915050565b6000602082019050818103600083015261033d81846102ea565b905092915050565b600080fd5b600080fd5b7f4e487b7100000000000000000000000000000000000000000000000000000000600052604160045260246000fd5b610387826102d9565b810181811067ffffffffffffffff821117156103a6576103a561034f565b5b80604052505050565b60006103b96101f4565b90506103c5828261037e565b919050565b600067ffffffffffffffff8211156103e5576103e461034f565b5b6103ee826102d9565b9050602081019050919050565b82818337600083830152505050565b600061041d610418846103ca565b6103af565b9050828152602081018484840111156104395761043861034a565b5b6104448482856103fb565b509392505050565b600082601f83011261046157610460610345565b5b813561047184826020860161040a565b91505092915050565b6000602082840312156104905761048f6101fe565b5b600082013567ffffffffffffffff8111156104ae576104ad610203565b5b6104ba8482850161044c565b91505092915050565b7f4e487b7100000000000000000000000000000000000000000000000000000000600052602260045260246000fd5b6000600282049050600182168061050a57607f821691505b60208210810361051d5761051c6104c3565b5b50919050565b60008190508160005260206000209050919050565b60006020601f8301049050919050565b600082821b905092915050565b6000600883026105857fffffffffffffffffffffffffffffffffffffffffffffffffffffffffffffffff82610548565b61058f8683610548565b95508019841693508086168417925050509392505050565b6000819050919050565b6000819050919050565b60006105d66105d16105cc846105a7565b6105b1565b6105a7565b9050919050565b6000819050919050565b6105f0836105bb565b6106046105fc826105dd565b848454610555565b825550505050565b600090565b61061961060c565b6106248184846105e7565b505050565b5b818110156106485761063d600082610611565b60018101905061062a565b5050565b601f82111561068d5761065e81610523565b61066784610538565b81016020851015610676578190505b61068a61068285610538565b830182610629565b50505b505050565b600082821c905092915050565b60006106b060001984600802610692565b1980831691505092915050565b60006106c9838361069f565b9150826002028217905092915050565b6106e282610293565b67ffffffffffffffff8111156106fb576106fa61034f565b5b61070582546104f2565b61071082828561064c565b600060209050601f8311600181146107435760008415610731578287015190505b61073b85826106bd565b8655506107a3565b601f19841661075186610523565b60005b8281101561077957848901518255600182019150602085019450602081019050610754565b868310156107965784890151610792601f89168261069f565b8355505b6001600288020188555050505b50505050505056fea2646970667358221220b303359374a89e1beffbc82df6e021d738aa2c60e48fc7e10fa84dee28b43f0064736f6c63430008130033",
  "immutableReferences": {},
  "source": "// SPDX-License-Identifier: MIT\npragma solidity ^0.8.19;\n\ncontract Register {\n    mapping(address => bytes) private _registrations;\n    event Registered(address indexed user, bytes vrfKey);\n    constructor() {}\n    function register(bytes memory vrfKey) public {\n        _registrations[msg.sender] = vrfKey;\n        emit Registered(msg.sender, vrfKey);\n    }\n\n    function getVRFKey(address user) external view returns (bytes memory) {\n        return _registrations[user];\n    }\n}\n",
  "sourcePath": "C:\\Users\\wjxtc\\Vrf_contract\\solidity_project\\contracts\\register.sol",
  "compiler": {
    "name": "solc",
    "version": "0.8.19+commit.7dd6d404.Emscripten.clang"
  },
  "schemaVersion": "3.4.16",
  "updatedAt": "2023-10-08T09:41:56.301Z",
  "devdoc": {
    "kind": "dev",
    "methods": {},
    "version": 1
  },
  "userdoc": {
    "kind": "user",
    "methods": {},
    "version": 1
  }
}