{
  "contractName": "Verify",
  "abi": [
    {
      "inputs": [
        {
          "internalType": "address",
          "name": "_registerAddress",
          "type": "address"
        }
      ],
      "stateMutability": "nonpayable",
      "type": "constructor"
    },
    {
      "anonymous": false,
      "inputs": [
        {
          "indexed": false,
          "internalType": "string",
          "name": "message",
          "type": "string"
        }
      ],
      "name": "Log",
      "type": "event"
    },
    {
      "anonymous": false,
      "inputs": [
        {
          "indexed": false,
          "internalType": "bytes",
          "name": "message",
          "type": "bytes"
        }
      ],
      "name": "LogBytes",
      "type": "event"
    },
    {
      "anonymous": false,
      "inputs": [
        {
          "indexed": false,
          "internalType": "bytes32",
          "name": "message",
          "type": "bytes32"
        }
      ],
      "name": "Logbytes32",
      "type": "event"
    },
    {
      "anonymous": false,
      "inputs": [
        {
          "indexed": false,
          "internalType": "uint8",
          "name": "message",
          "type": "uint8"
        }
      ],
      "name": "Loguint8",
      "type": "event"
    },
    {
      "anonymous": false,
      "inputs": [
        {
          "indexed": false,
          "internalType": "bytes32",
          "name": "randomNumber",
          "type": "bytes32"
        }
      ],
      "name": "RandomNumberRecorded",
      "type": "event"
    },
    {
      "anonymous": false,
      "inputs": [
        {
          "indexed": false,
          "internalType": "uint8",
          "name": "v",
          "type": "uint8"
        },
        {
          "indexed": false,
          "internalType": "bytes32",
          "name": "r",
          "type": "bytes32"
        },
        {
          "indexed": false,
          "internalType": "bytes32",
          "name": "s",
          "type": "bytes32"
        }
      ],
      "name": "VRSOutput",
      "type": "event"
    },
    {
      "inputs": [],
      "name": "registerContract",
      "outputs": [
        {
          "internalType": "contract Register",
          "name": "",
          "type": "address"
        }
      ],
      "stateMutability": "view",
      "type": "function",
      "constant": true
    },
    {
      "inputs": [
        {
          "internalType": "bytes",
          "name": "",
          "type": "bytes"
        }
      ],
      "name": "usedHashes",
      "outputs": [
        {
          "internalType": "bool",
          "name": "",
          "type": "bool"
        }
      ],
      "stateMutability": "view",
      "type": "function",
      "constant": true
    },
    {
      "inputs": [
        {
          "internalType": "address",
          "name": "applicationAddress",
          "type": "address"
        },
        {
          "internalType": "bytes32",
          "name": "messageHash",
          "type": "bytes32"
        },
        {
          "internalType": "bytes",
          "name": "signature",
          "type": "bytes"
        },
        {
          "internalType": "uint8",
          "name": "v",
          "type": "uint8"
        },
        {
          "internalType": "bytes32",
          "name": "expectedRandom",
          "type": "bytes32"
        }
      ],
      "name": "verify",
      "outputs": [
        {
          "internalType": "bool",
          "name": "",
          "type": "bool"
        }
      ],
      "stateMutability": "nonpayable",
      "type": "function"
    },
    {
      "inputs": [
        {
          "internalType": "address",
          "name": "applicationAddress",
          "type": "address"
        },
        {
          "internalType": "bytes32[]",
          "name": "messageHashes",
          "type": "bytes32[]"
        },
        {
          "internalType": "bytes[]",
          "name": "signatures",
          "type": "bytes[]"
        },
        {
          "internalType": "uint8[]",
          "name": "v",
          "type": "uint8[]"
        },
        {
          "internalType": "bytes32[]",
          "name": "expectedRandoms",
          "type": "bytes32[]"
        }
      ],
      "name": "batchVerify",
      "outputs": [
        {
          "internalType": "bool",
          "name": "",
          "type": "bool"
        }
      ],
      "stateMutability": "nonpayable",
      "type": "function"
    }
  ],
  "bytecode": "0x60806040523480156200001157600080fd5b50604051620013cd380380620013cd8339818101604052810190620000379190620000e8565b806000806101000a81548173ffffffffffffffffffffffffffffffffffffffff021916908373ffffffffffffffffffffffffffffffffffffffff160217905550506200011a565b600080fd5b600073ffffffffffffffffffffffffffffffffffffffff82169050919050565b6000620000b08262000083565b9050919050565b620000c281620000a3565b8114620000ce57600080fd5b50565b600081519050620000e281620000b7565b92915050565b6000602082840312156200010157620001006200007e565b5b60006200011184828501620000d1565b91505092915050565b6112a3806200012a6000396000f3fe608060405234801561001057600080fd5b506004361061004c5760003560e01c806312fb91f4146100515780631a8194ac146100815780637feffff3146100b1578063efb24962146100cf575b600080fd5b61006b6004803603810190610066919061075e565b6100ff565b60405161007891906107c2565b60405180910390f35b61009b600480360381019061009691906108aa565b610135565b6040516100a891906107c2565b60405180910390f35b6100b96103d9565b6040516100c691906109a0565b60405180910390f35b6100e960048036038101906100e49190610c27565b6103fd565b6040516100f691906107c2565b60405180910390f35b6001818051602081018201805184825260208301602085012081835280955050505050506000915054906101000a900460ff1681565b60006001858760405160200161014c929190610d7b565b6040516020818303038152906040526040516101689190610e18565b908152602001604051809103902060009054906101000a900460ff16156101c4576040517f08c379a00000000000000000000000000000000000000000000000000000000081526004016101bb90610e8c565b60405180910390fd5b60008060009054906101000a900473ffffffffffffffffffffffffffffffffffffffff1673ffffffffffffffffffffffffffffffffffffffff1663857cdbb8886040518263ffffffff1660e01b81526004016102209190610ebb565b600060405180830381865afa15801561023d573d6000803e3d6000fd5b505050506040513d6000823e3d601f19601f820116820180604052508101906102669190610f46565b90506000610275878787610500565b90506102808261056c565b73ffffffffffffffffffffffffffffffffffffffff168173ffffffffffffffffffffffffffffffffffffffff16146102ed576040517f08c379a00000000000000000000000000000000000000000000000000000000081526004016102e490610fdb565b60405180910390fd5b60008680519060200120905084811461033b576040517f08c379a000000000000000000000000000000000000000000000000000000000815260040161033290611047565b60405180910390fd5b7fbe20ecaeb0ba4e202bbb06a47b581ace9b214649bca1c51d4405a9630d7ea1dd8160405161036a9190611076565b60405180910390a1600180898b604051602001610388929190610d7b565b6040516020818303038152906040526040516103a49190610e18565b908152602001604051809103902060006101000a81548160ff0219169083151502179055506001935050505095945050505050565b60008054906101000a900473ffffffffffffffffffffffffffffffffffffffff1681565b600083518551148015610411575082518451145b801561041e575081518351145b61045d576040517f08c379a0000000000000000000000000000000000000000000000000000000008152600401610454906110dd565b60405180910390fd5b60005b85518110156104f2576104de878783815181106104805761047f6110fd565b5b602002602001015187848151811061049b5761049a6110fd565b5b60200260200101518785815181106104b6576104b56110fd565b5b60200260200101518786815181106104d1576104d06110fd565b5b6020026020010151610135565b5080806104ea90611165565b915050610460565b506001905095945050505050565b600080600061050e85610588565b915091506001868584846040516000815260200160405260405161053594939291906111bc565b6020604051602081039080840390855afa158015610557573d6000803e3d6000fd5b50505060206040510351925050509392505050565b6000808280519060200120905080600052600051915050919050565b60008060418351036105a75760208301519150604083015190506105ff565b60408351036105c35760208301519150604083015190506105fe565b6040517f08c379a00000000000000000000000000000000000000000000000000000000081526004016105f59061124d565b60405180910390fd5b5b915091565b6000604051905090565b600080fd5b600080fd5b600080fd5b600080fd5b6000601f19601f8301169050919050565b7f4e487b7100000000000000000000000000000000000000000000000000000000600052604160045260246000fd5b61066b82610622565b810181811067ffffffffffffffff8211171561068a57610689610633565b5b80604052505050565b600061069d610604565b90506106a98282610662565b919050565b600067ffffffffffffffff8211156106c9576106c8610633565b5b6106d282610622565b9050602081019050919050565b82818337600083830152505050565b60006107016106fc846106ae565b610693565b90508281526020810184848401111561071d5761071c61061d565b5b6107288482856106df565b509392505050565b600082601f83011261074557610744610618565b5b81356107558482602086016106ee565b91505092915050565b6000602082840312156107745761077361060e565b5b600082013567ffffffffffffffff81111561079257610791610613565b5b61079e84828501610730565b91505092915050565b60008115159050919050565b6107bc816107a7565b82525050565b60006020820190506107d760008301846107b3565b92915050565b600073ffffffffffffffffffffffffffffffffffffffff82169050919050565b6000610808826107dd565b9050919050565b610818816107fd565b811461082357600080fd5b50565b6000813590506108358161080f565b92915050565b6000819050919050565b61084e8161083b565b811461085957600080fd5b50565b60008135905061086b81610845565b92915050565b600060ff82169050919050565b61088781610871565b811461089257600080fd5b50565b6000813590506108a48161087e565b92915050565b600080600080600060a086880312156108c6576108c561060e565b5b60006108d488828901610826565b95505060206108e58882890161085c565b945050604086013567ffffffffffffffff81111561090657610905610613565b5b61091288828901610730565b935050606061092388828901610895565b92505060806109348882890161085c565b9150509295509295909350565b6000819050919050565b600061096661096161095c846107dd565b610941565b6107dd565b9050919050565b60006109788261094b565b9050919050565b600061098a8261096d565b9050919050565b61099a8161097f565b82525050565b60006020820190506109b56000830184610991565b92915050565b600067ffffffffffffffff8211156109d6576109d5610633565b5b602082029050602081019050919050565b600080fd5b60006109ff6109fa846109bb565b610693565b90508083825260208201905060208402830185811115610a2257610a216109e7565b5b835b81811015610a4b5780610a37888261085c565b845260208401935050602081019050610a24565b5050509392505050565b600082601f830112610a6a57610a69610618565b5b8135610a7a8482602086016109ec565b91505092915050565b600067ffffffffffffffff821115610a9e57610a9d610633565b5b602082029050602081019050919050565b6000610ac2610abd84610a83565b610693565b90508083825260208201905060208402830185811115610ae557610ae46109e7565b5b835b81811015610b2c57803567ffffffffffffffff811115610b0a57610b09610618565b5b808601610b178982610730565b85526020850194505050602081019050610ae7565b5050509392505050565b600082601f830112610b4b57610b4a610618565b5b8135610b5b848260208601610aaf565b91505092915050565b600067ffffffffffffffff821115610b7f57610b7e610633565b5b602082029050602081019050919050565b6000610ba3610b9e84610b64565b610693565b90508083825260208201905060208402830185811115610bc657610bc56109e7565b5b835b81811015610bef5780610bdb8882610895565b845260208401935050602081019050610bc8565b5050509392505050565b600082601f830112610c0e57610c0d610618565b5b8135610c1e848260208601610b90565b91505092915050565b600080600080600060a08688031215610c4357610c4261060e565b5b6000610c5188828901610826565b955050602086013567ffffffffffffffff811115610c7257610c71610613565b5b610c7e88828901610a55565b945050604086013567ffffffffffffffff811115610c9f57610c9e610613565b5b610cab88828901610b36565b935050606086013567ffffffffffffffff811115610ccc57610ccb610613565b5b610cd888828901610bf9565b925050608086013567ffffffffffffffff811115610cf957610cf8610613565b5b610d0588828901610a55565b9150509295509295909350565b6000819050919050565b610d2d610d288261083b565b610d12565b82525050565b60008160601b9050919050565b6000610d4b82610d33565b9050919050565b6000610d5d82610d40565b9050919050565b610d75610d70826107fd565b610d52565b82525050565b6000610d878285610d1c565b602082019150610d978284610d64565b6014820191508190509392505050565b600081519050919050565b600081905092915050565b60005b83811015610ddb578082015181840152602081019050610dc0565b60008484015250505050565b6000610df282610da7565b610dfc8185610db2565b9350610e0c818560208601610dbd565b80840191505092915050565b6000610e248284610de7565b915081905092915050565b600082825260208201905092915050565b7f4861736820616c72656164792075736564000000000000000000000000000000600082015250565b6000610e76601183610e2f565b9150610e8182610e40565b602082019050919050565b60006020820190508181036000830152610ea581610e69565b9050919050565b610eb5816107fd565b82525050565b6000602082019050610ed06000830184610eac565b92915050565b6000610ee9610ee4846106ae565b610693565b905082815260208101848484011115610f0557610f0461061d565b5b610f10848285610dbd565b509392505050565b600082601f830112610f2d57610f2c610618565b5b8151610f3d848260208601610ed6565b91505092915050565b600060208284031215610f5c57610f5b61060e565b5b600082015167ffffffffffffffff811115610f7a57610f79610613565b5b610f8684828501610f18565b91505092915050565b7f496e76616c6964207369676e6174757265000000000000000000000000000000600082015250565b6000610fc5601183610e2f565b9150610fd082610f8f565b602082019050919050565b60006020820190508181036000830152610ff481610fb8565b9050919050565b7f496e76616c69642072616e646f6d206e756d6265720000000000000000000000600082015250565b6000611031601583610e2f565b915061103c82610ffb565b602082019050919050565b6000602082019050818103600083015261106081611024565b9050919050565b6110708161083b565b82525050565b600060208201905061108b6000830184611067565b92915050565b7f496e76616c696420696e70757400000000000000000000000000000000000000600082015250565b60006110c7600d83610e2f565b91506110d282611091565b602082019050919050565b600060208201905081810360008301526110f6816110ba565b9050919050565b7f4e487b7100000000000000000000000000000000000000000000000000000000600052603260045260246000fd5b7f4e487b7100000000000000000000000000000000000000000000000000000000600052601160045260246000fd5b6000819050919050565b60006111708261115b565b91507fffffffffffffffffffffffffffffffffffffffffffffffffffffffffffffffff82036111a2576111a161112c565b5b600182019050919050565b6111b681610871565b82525050565b60006080820190506111d16000830187611067565b6111de60208301866111ad565b6111eb6040830185611067565b6111f86060830184611067565b95945050505050565b7f45434453413a20696e76616c6964207369676e6174757265206c656e67746800600082015250565b6000611237601f83610e2f565b915061124282611201565b602082019050919050565b600060208201905081810360008301526112668161122a565b905091905056fea2646970667358221220b9867f5e2e722e048cd90cb166b02986c0a6a0769b09b0bdac37789c04bd87b164736f6c63430008130033",
  "immutableReferences": {},
  "source": "// SPDX-License-Identifier: MIT\npragma solidity ^0.8.19;\n\nimport \"./register.sol\";\n\ncontract Verify {\n    Register public registerContract;\n\n    constructor(address _registerAddress) {\n        registerContract = Register(_registerAddress);\n    }\n    event RandomNumberRecorded(bytes32 randomNumber);\n    event VRSOutput(uint8 v, bytes32 r, bytes32 s);\n    event Log(string message);\n    event LogBytes(bytes message);\n    event Loguint8(uint8 message);\n    event Logbytes32(bytes32 message);\n    mapping(bytes => bool) public usedHashes;\n\n    function verify(\n        address applicationAddress,\n        bytes32 messageHash,\n        bytes memory signature,\n        uint8 v,\n        bytes32 expectedRandom\n    ) public returns (bool) {\n        require (\n            !usedHashes[abi.encodePacked(messageHash, applicationAddress)],\n            \"Hash already used\"\n        );\n        bytes memory registeredKey = registerContract.getPublicKey(\n            applicationAddress\n        );\n        address signer = recoverSigner(messageHash, signature, v);\n        require(\n            signer == publicKeyToAddress(registeredKey),\n            \"Invalid signature\"\n        );\n        bytes32 computedRandom = keccak256(signature);\n        require(computedRandom == expectedRandom, \"Invalid random number\");\n        emit RandomNumberRecorded(computedRandom);\n        usedHashes[abi.encodePacked(messageHash, applicationAddress)] = true;\n        return true;\n    }\n\n    function batchVerify(\n        address applicationAddress,\n        bytes32[] memory messageHashes,\n        bytes[] memory signatures,\n        uint8[] memory v,\n        bytes32[] memory expectedRandoms\n    ) public returns (bool) {\n        require(\n            messageHashes.length == signatures.length &&\n                signatures.length == v.length &&\n                v.length == expectedRandoms.length,\n            \"Invalid input\"\n        );\n        for (uint256 i = 0; i < messageHashes.length; i++) {\n            verify(\n                applicationAddress,\n                messageHashes[i],\n                signatures[i],\n                v[i],\n                expectedRandoms[i]\n            );\n        }\n        return true;\n    }\n\n    function publicKeyToAddress(\n        bytes memory publicKey\n    ) internal pure returns (address addr) {\n        bytes32 hash = keccak256(publicKey);\n        assembly {\n            mstore(0, hash)\n            addr := mload(0)\n        }\n    }\n    \n    function recoverSigner(\n        bytes32 messageHash,\n        bytes memory sig,\n        uint8 v\n    ) internal pure returns (address) {\n        (bytes32 r, bytes32 s) = splitSignature(sig);\n        return ecrecover(messageHash, v, r, s);\n    }\n\n    function splitSignature(\n        bytes memory sig\n    ) internal pure returns (bytes32 r, bytes32 s) {\n        // Check the signature length\n        // - case 65: r,s,v signature (standard)\n        // - case 64: r,vs signature (cf https://eips.ethereum.org/EIPS/eip-2098)\n        if (sig.length == 65) {\n            // ecrecover takes the signature parameters, and the only way to get them\n            // currently is to use assembly.\n            // solhint-disable-next-line no-inline-assembly\n            assembly {\n                r := mload(add(sig, 0x20))\n                s := mload(add(sig, 0x40))\n            }\n        } else if (sig.length == 64) {\n            // ecrecover takes the signature parameters, and the only way to get them\n            // currently is to use assembly.\n            // solhint-disable-next-line no-inline-assembly\n            assembly {\n                r := mload(add(sig, 0x20))\n                s := mload(add(sig, 0x40))\n            }\n        } else {\n            revert(\"ECDSA: invalid signature length\");\n        }\n        return (r, s);\n    }\n}\n",
  "sourcePath": "C:\\Users\\wjxtc\\Vrf_contract\\solidity_project\\contracts\\verify.sol",
  "compiler": {
    "name": "solc",
    "version": "0.8.19+commit.7dd6d404.Emscripten.clang"
  },
  "schemaVersion": "3.4.16",
  "updatedAt": "2023-10-08T03:24:14.890Z",
  "networkType": "ethereum",
  "devdoc": {
    "kind": "dev",
    "methods": {},
    "version": 1
  },
  "userdoc": {
    "kind": "user",
    "methods": {},
    "version": 1
  }
}