{
  "contractName": "Verify",
  "abi": [
    {
      "inputs": [
        {
          "internalType": "address",
          "name": "_registerAddress",
          "type": "address"
        }
      ],
      "stateMutability": "nonpayable",
      "type": "constructor"
    },
    {
      "anonymous": false,
      "inputs": [
        {
          "indexed": false,
          "internalType": "bytes32",
          "name": "messageHash",
          "type": "bytes32"
        },
        {
          "indexed": false,
          "internalType": "address",
          "name": "applicationAddress",
          "type": "address"
        }
      ],
      "name": "Committeed",
      "type": "event"
    },
    {
      "anonymous": false,
      "inputs": [
        {
          "indexed": false,
          "internalType": "string",
          "name": "message",
          "type": "string"
        }
      ],
      "name": "Log",
      "type": "event"
    },
    {
      "anonymous": false,
      "inputs": [
        {
          "indexed": false,
          "internalType": "bytes",
          "name": "message",
          "type": "bytes"
        }
      ],
      "name": "LogBytes",
      "type": "event"
    },
    {
      "anonymous": false,
      "inputs": [
        {
          "indexed": false,
          "internalType": "bytes32",
          "name": "message",
          "type": "bytes32"
        }
      ],
      "name": "Logbytes32",
      "type": "event"
    },
    {
      "anonymous": false,
      "inputs": [
        {
          "indexed": false,
          "internalType": "uint8",
          "name": "message",
          "type": "uint8"
        }
      ],
      "name": "Loguint8",
      "type": "event"
    },
    {
      "anonymous": false,
      "inputs": [
        {
          "indexed": false,
          "internalType": "bytes32",
          "name": "randomNumber",
          "type": "bytes32"
        }
      ],
      "name": "RandomNumberRecorded",
      "type": "event"
    },
    {
      "anonymous": false,
      "inputs": [
        {
          "indexed": false,
          "internalType": "uint8",
          "name": "v",
          "type": "uint8"
        },
        {
          "indexed": false,
          "internalType": "bytes32",
          "name": "r",
          "type": "bytes32"
        },
        {
          "indexed": false,
          "internalType": "bytes32",
          "name": "s",
          "type": "bytes32"
        }
      ],
      "name": "VRSOutput",
      "type": "event"
    },
    {
      "inputs": [
        {
          "internalType": "bytes",
          "name": "",
          "type": "bytes"
        }
      ],
      "name": "committedHashes",
      "outputs": [
        {
          "internalType": "bool",
          "name": "",
          "type": "bool"
        }
      ],
      "stateMutability": "view",
      "type": "function"
    },
    {
      "inputs": [],
      "name": "registerContract",
      "outputs": [
        {
          "internalType": "contract Register",
          "name": "",
          "type": "address"
        }
      ],
      "stateMutability": "view",
      "type": "function"
    },
    {
      "inputs": [
        {
          "internalType": "bytes32",
          "name": "messageHash",
          "type": "bytes32"
        }
      ],
      "name": "commit",
      "outputs": [
        {
          "internalType": "bool",
          "name": "",
          "type": "bool"
        }
      ],
      "stateMutability": "nonpayable",
      "type": "function"
    },
    {
      "inputs": [
        {
          "internalType": "address",
          "name": "applicationAddress",
          "type": "address"
        },
        {
          "internalType": "bytes32",
          "name": "messageHash",
          "type": "bytes32"
        },
        {
          "internalType": "bytes",
          "name": "signature",
          "type": "bytes"
        },
        {
          "internalType": "uint8",
          "name": "v",
          "type": "uint8"
        },
        {
          "internalType": "bytes32",
          "name": "expectedRandom",
          "type": "bytes32"
        }
      ],
      "name": "verify",
      "outputs": [
        {
          "internalType": "bool",
          "name": "",
          "type": "bool"
        }
      ],
      "stateMutability": "nonpayable",
      "type": "function"
    },
    {
      "inputs": [
        {
          "internalType": "address",
          "name": "applicationAddress",
          "type": "address"
        },
        {
          "internalType": "bytes32[]",
          "name": "messageHashes",
          "type": "bytes32[]"
        },
        {
          "internalType": "bytes[]",
          "name": "signatures",
          "type": "bytes[]"
        },
        {
          "internalType": "uint8[]",
          "name": "v",
          "type": "uint8[]"
        },
        {
          "internalType": "bytes32[]",
          "name": "expectedRandoms",
          "type": "bytes32[]"
        }
      ],
      "name": "batchVerify",
      "outputs": [
        {
          "internalType": "bool",
          "name": "",
          "type": "bool"
        }
      ],
      "stateMutability": "nonpayable",
      "type": "function"
    }
  ],
  "bytecode": "0x60806040523480156200001157600080fd5b50604051620016e9380380620016e98339818101604052810190620000379190620000e8565b806000806101000a81548173ffffffffffffffffffffffffffffffffffffffff021916908373ffffffffffffffffffffffffffffffffffffffff160217905550506200011a565b600080fd5b600073ffffffffffffffffffffffffffffffffffffffff82169050919050565b6000620000b08262000083565b9050919050565b620000c281620000a3565b8114620000ce57600080fd5b50565b600081519050620000e281620000b7565b92915050565b6000602082840312156200010157620001006200007e565b5b60006200011184828501620000d1565b91505092915050565b6115bf806200012a6000396000f3fe608060405234801561001057600080fd5b50600436106100575760003560e01c80631a8194ac1461005c5780637feffff31461008c578063d39b08cb146100aa578063efb24962146100da578063f14fcbc81461010a575b600080fd5b61007660048036038101906100719190610a19565b61013a565b6040516100839190610acb565b60405180910390f35b610094610386565b6040516100a19190610b45565b60405180910390f35b6100c460048036038101906100bf9190610b60565b6103aa565b6040516100d19190610acb565b60405180910390f35b6100f460048036038101906100ef9190610e15565b6103e0565b6040516101019190610acb565b60405180910390f35b610124600480360381019061011f9190610f00565b6104e3565b6040516101319190610acb565b60405180910390f35b600060018587604051602001610151929190610f96565b60405160208183030381529060405260405161016d9190611033565b908152602001604051809103902060009054906101000a900460ff166101c8576040517f08c379a00000000000000000000000000000000000000000000000000000000081526004016101bf906110a7565b60405180910390fd5b60008060009054906101000a900473ffffffffffffffffffffffffffffffffffffffff1673ffffffffffffffffffffffffffffffffffffffff16630c36b626886040518263ffffffff1660e01b815260040161022491906110d6565b600060405180830381865afa158015610241573d6000803e3d6000fd5b505050506040513d6000823e3d601f19601f8201168201806040525081019061026a9190611161565b905060006102798787876106ee565b90506102848261075a565b73ffffffffffffffffffffffffffffffffffffffff168173ffffffffffffffffffffffffffffffffffffffff16146102f1576040517f08c379a00000000000000000000000000000000000000000000000000000000081526004016102e8906111f6565b60405180910390fd5b60008680519060200120905084811461033f576040517f08c379a000000000000000000000000000000000000000000000000000000000815260040161033690611262565b60405180910390fd5b7fbe20ecaeb0ba4e202bbb06a47b581ace9b214649bca1c51d4405a9630d7ea1dd8160405161036e9190611291565b60405180910390a16001935050505095945050505050565b60008054906101000a900473ffffffffffffffffffffffffffffffffffffffff1681565b6001818051602081018201805184825260208301602085012081835280955050505050506000915054906101000a900460ff1681565b6000835185511480156103f4575082518451145b8015610401575081518351145b610440576040517f08c379a0000000000000000000000000000000000000000000000000000000008152600401610437906112f8565b60405180910390fd5b60005b85518110156104d5576104c18787838151811061046357610462611318565b5b602002602001015187848151811061047e5761047d611318565b5b602002602001015187858151811061049957610498611318565b5b60200260200101518786815181106104b4576104b3611318565b5b602002602001015161013a565b5080806104cd90611380565b915050610443565b506001905095945050505050565b6000600182336040516020016104fa929190610f96565b6040516020818303038152906040526040516105169190611033565b908152602001604051809103902060009054906101000a900460ff1615610572576040517f08c379a000000000000000000000000000000000000000000000000000000000815260040161056990611414565b60405180910390fd5b60008060009054906101000a900473ffffffffffffffffffffffffffffffffffffffff1673ffffffffffffffffffffffffffffffffffffffff16630c36b626336040518263ffffffff1660e01b81526004016105ce91906110d6565b600060405180830381865afa1580156105eb573d6000803e3d6000fd5b505050506040513d6000823e3d601f19601f820116820180604052508101906106149190611161565b5103610655576040517f08c379a000000000000000000000000000000000000000000000000000000000815260040161064c90611480565b60405180910390fd5b600180833360405160200161066b929190610f96565b6040516020818303038152906040526040516106879190611033565b908152602001604051809103902060006101000a81548160ff0219169083151502179055507f9027756f10fb7f0e1221e193e4d606f166e47b4c9805d4bccd23f113d7d3bafd82336040516106dd9291906114a0565b60405180910390a160019050919050565b60008060006106fc85610776565b915091506001868584846040516000815260200160405260405161072394939291906114d8565b6020604051602081039080840390855afa158015610745573d6000803e3d6000fd5b50505060206040510351925050509392505050565b6000808280519060200120905080600052600051915050919050565b60008060418351036107955760208301519150604083015190506107ed565b60408351036107b15760208301519150604083015190506107ec565b6040517f08c379a00000000000000000000000000000000000000000000000000000000081526004016107e390611569565b60405180910390fd5b5b915091565b6000604051905090565b600080fd5b600080fd5b600073ffffffffffffffffffffffffffffffffffffffff82169050919050565b600061083182610806565b9050919050565b61084181610826565b811461084c57600080fd5b50565b60008135905061085e81610838565b92915050565b6000819050919050565b61087781610864565b811461088257600080fd5b50565b6000813590506108948161086e565b92915050565b600080fd5b600080fd5b6000601f19601f8301169050919050565b7f4e487b7100000000000000000000000000000000000000000000000000000000600052604160045260246000fd5b6108ed826108a4565b810181811067ffffffffffffffff8211171561090c5761090b6108b5565b5b80604052505050565b600061091f6107f2565b905061092b82826108e4565b919050565b600067ffffffffffffffff82111561094b5761094a6108b5565b5b610954826108a4565b9050602081019050919050565b82818337600083830152505050565b600061098361097e84610930565b610915565b90508281526020810184848401111561099f5761099e61089f565b5b6109aa848285610961565b509392505050565b600082601f8301126109c7576109c661089a565b5b81356109d7848260208601610970565b91505092915050565b600060ff82169050919050565b6109f6816109e0565b8114610a0157600080fd5b50565b600081359050610a13816109ed565b92915050565b600080600080600060a08688031215610a3557610a346107fc565b5b6000610a438882890161084f565b9550506020610a5488828901610885565b945050604086013567ffffffffffffffff811115610a7557610a74610801565b5b610a81888289016109b2565b9350506060610a9288828901610a04565b9250506080610aa388828901610885565b9150509295509295909350565b60008115159050919050565b610ac581610ab0565b82525050565b6000602082019050610ae06000830184610abc565b92915050565b6000819050919050565b6000610b0b610b06610b0184610806565b610ae6565b610806565b9050919050565b6000610b1d82610af0565b9050919050565b6000610b2f82610b12565b9050919050565b610b3f81610b24565b82525050565b6000602082019050610b5a6000830184610b36565b92915050565b600060208284031215610b7657610b756107fc565b5b600082013567ffffffffffffffff811115610b9457610b93610801565b5b610ba0848285016109b2565b91505092915050565b600067ffffffffffffffff821115610bc457610bc36108b5565b5b602082029050602081019050919050565b600080fd5b6000610bed610be884610ba9565b610915565b90508083825260208201905060208402830185811115610c1057610c0f610bd5565b5b835b81811015610c395780610c258882610885565b845260208401935050602081019050610c12565b5050509392505050565b600082601f830112610c5857610c5761089a565b5b8135610c68848260208601610bda565b91505092915050565b600067ffffffffffffffff821115610c8c57610c8b6108b5565b5b602082029050602081019050919050565b6000610cb0610cab84610c71565b610915565b90508083825260208201905060208402830185811115610cd357610cd2610bd5565b5b835b81811015610d1a57803567ffffffffffffffff811115610cf857610cf761089a565b5b808601610d0589826109b2565b85526020850194505050602081019050610cd5565b5050509392505050565b600082601f830112610d3957610d3861089a565b5b8135610d49848260208601610c9d565b91505092915050565b600067ffffffffffffffff821115610d6d57610d6c6108b5565b5b602082029050602081019050919050565b6000610d91610d8c84610d52565b610915565b90508083825260208201905060208402830185811115610db457610db3610bd5565b5b835b81811015610ddd5780610dc98882610a04565b845260208401935050602081019050610db6565b5050509392505050565b600082601f830112610dfc57610dfb61089a565b5b8135610e0c848260208601610d7e565b91505092915050565b600080600080600060a08688031215610e3157610e306107fc565b5b6000610e3f8882890161084f565b955050602086013567ffffffffffffffff811115610e6057610e5f610801565b5b610e6c88828901610c43565b945050604086013567ffffffffffffffff811115610e8d57610e8c610801565b5b610e9988828901610d24565b935050606086013567ffffffffffffffff811115610eba57610eb9610801565b5b610ec688828901610de7565b925050608086013567ffffffffffffffff811115610ee757610ee6610801565b5b610ef388828901610c43565b9150509295509295909350565b600060208284031215610f1657610f156107fc565b5b6000610f2484828501610885565b91505092915050565b6000819050919050565b610f48610f4382610864565b610f2d565b82525050565b60008160601b9050919050565b6000610f6682610f4e565b9050919050565b6000610f7882610f5b565b9050919050565b610f90610f8b82610826565b610f6d565b82525050565b6000610fa28285610f37565b602082019150610fb28284610f7f565b6014820191508190509392505050565b600081519050919050565b600081905092915050565b60005b83811015610ff6578082015181840152602081019050610fdb565b60008484015250505050565b600061100d82610fc2565b6110178185610fcd565b9350611027818560208601610fd8565b80840191505092915050565b600061103f8284611002565b915081905092915050565b600082825260208201905092915050565b7f48617368206e6f7420636f6d6d69747465640000000000000000000000000000600082015250565b600061109160128361104a565b915061109c8261105b565b602082019050919050565b600060208201905081810360008301526110c081611084565b9050919050565b6110d081610826565b82525050565b60006020820190506110eb60008301846110c7565b92915050565b60006111046110ff84610930565b610915565b9050828152602081018484840111156111205761111f61089f565b5b61112b848285610fd8565b509392505050565b600082601f8301126111485761114761089a565b5b81516111588482602086016110f1565b91505092915050565b600060208284031215611177576111766107fc565b5b600082015167ffffffffffffffff81111561119557611194610801565b5b6111a184828501611133565b91505092915050565b7f496e76616c6964207369676e6174757265000000000000000000000000000000600082015250565b60006111e060118361104a565b91506111eb826111aa565b602082019050919050565b6000602082019050818103600083015261120f816111d3565b9050919050565b7f496e76616c69642072616e646f6d206e756d6265720000000000000000000000600082015250565b600061124c60158361104a565b915061125782611216565b602082019050919050565b6000602082019050818103600083015261127b8161123f565b9050919050565b61128b81610864565b82525050565b60006020820190506112a66000830184611282565b92915050565b7f496e76616c696420696e70757400000000000000000000000000000000000000600082015250565b60006112e2600d8361104a565b91506112ed826112ac565b602082019050919050565b60006020820190508181036000830152611311816112d5565b9050919050565b7f4e487b7100000000000000000000000000000000000000000000000000000000600052603260045260246000fd5b7f4e487b7100000000000000000000000000000000000000000000000000000000600052601160045260246000fd5b6000819050919050565b600061138b82611376565b91507fffffffffffffffffffffffffffffffffffffffffffffffffffffffffffffffff82036113bd576113bc611347565b5b600182019050919050565b7f4861736820616c726561647920636f6d6d697474656400000000000000000000600082015250565b60006113fe60168361104a565b9150611409826113c8565b602082019050919050565b6000602082019050818103600083015261142d816113f1565b9050919050565b7f4170706c69636174696f6e206e6f742072656769737465726564000000000000600082015250565b600061146a601a8361104a565b915061147582611434565b602082019050919050565b600060208201905081810360008301526114998161145d565b9050919050565b60006040820190506114b56000830185611282565b6114c260208301846110c7565b9392505050565b6114d2816109e0565b82525050565b60006080820190506114ed6000830187611282565b6114fa60208301866114c9565b6115076040830185611282565b6115146060830184611282565b95945050505050565b7f45434453413a20696e76616c6964207369676e6174757265206c656e67746800600082015250565b6000611553601f8361104a565b915061155e8261151d565b602082019050919050565b6000602082019050818103600083015261158281611546565b905091905056fea2646970667358221220760630eabc01cc5725f83e318e6eb3028d30f176830990bf6af524d1dd0ac90064736f6c63430008130033",
  "immutableReferences": {},
  "source": "// SPDX-License-Identifier: MIT\npragma solidity ^0.8.19;\n\nimport \"./register.sol\";\n\ncontract Verify {\n    Register public registerContract;\n\n    constructor(address _registerAddress) {\n        registerContract = Register(_registerAddress);\n    }\n    event RandomNumberRecorded(bytes32 randomNumber);\n    event VRSOutput(uint8 v, bytes32 r, bytes32 s);\n    event Log(string message);\n    event LogBytes(bytes message);\n    event Loguint8(uint8 message);\n    event Logbytes32(bytes32 message);\n    event Committeed(bytes32 messageHash, address applicationAddress);\n    mapping(bytes => bool) public committedHashes;\n\n    function commit(\n        bytes32 messageHash\n    ) public returns (bool) {\n        require (\n            !committedHashes[abi.encodePacked(messageHash, msg.sender)],\n            \"Hash already committed\"\n        );\n        require(\n            registerContract.getVRFKey(msg.sender).length != 0,\n            \"Application not registered\"\n        );\n        committedHashes[abi.encodePacked(messageHash, msg.sender)] = true;\n        emit Committeed(messageHash, msg.sender);\n        return true;\n    }\n\n    function verify(\n        address applicationAddress,\n        bytes32 messageHash,\n        bytes memory signature,\n        uint8 v,\n        bytes32 expectedRandom\n    ) public returns (bool) {\n        require (\n            committedHashes[abi.encodePacked(messageHash, applicationAddress)],\n            \"Hash not committed\"\n        );\n        bytes memory registeredKey = registerContract.getVRFKey(\n            applicationAddress\n        );\n        address signer = recoverSigner(messageHash, signature, v);\n        require(\n            signer == publicKeyToAddress(registeredKey),\n            \"Invalid signature\"\n        );\n        bytes32 computedRandom = keccak256(signature);\n        require(computedRandom == expectedRandom, \"Invalid random number\");\n        emit RandomNumberRecorded(computedRandom);\n        return true;\n    }\n\n    function batchVerify(\n        address applicationAddress,\n        bytes32[] memory messageHashes,\n        bytes[] memory signatures,\n        uint8[] memory v,\n        bytes32[] memory expectedRandoms\n    ) public returns (bool) {\n        require(\n            messageHashes.length == signatures.length &&\n                signatures.length == v.length &&\n                v.length == expectedRandoms.length,\n            \"Invalid input\"\n        );\n        for (uint256 i = 0; i < messageHashes.length; i++) {\n            verify(\n                applicationAddress,\n                messageHashes[i],\n                signatures[i],\n                v[i],\n                expectedRandoms[i]\n            );\n        }\n        return true;\n    }\n\n    function publicKeyToAddress(\n        bytes memory publicKey\n    ) internal pure returns (address addr) {\n        bytes32 hash = keccak256(publicKey);\n        assembly {\n            mstore(0, hash)\n            addr := mload(0)\n        }\n    }\n    \n    function recoverSigner(\n        bytes32 messageHash,\n        bytes memory sig,\n        uint8 v\n    ) internal pure returns (address) {\n        (bytes32 r, bytes32 s) = splitSignature(sig);\n        return ecrecover(messageHash, v, r, s);\n    }\n\n    function splitSignature(\n        bytes memory sig\n    ) internal pure returns (bytes32 r, bytes32 s) {\n        // Check the signature length\n        // - case 65: r,s,v signature (standard)\n        // - case 64: r,vs signature (cf https://eips.ethereum.org/EIPS/eip-2098)\n        if (sig.length == 65) {\n            // ecrecover takes the signature parameters, and the only way to get them\n            // currently is to use assembly.\n            // solhint-disable-next-line no-inline-assembly\n            assembly {\n                r := mload(add(sig, 0x20))\n                s := mload(add(sig, 0x40))\n            }\n        } else if (sig.length == 64) {\n            // ecrecover takes the signature parameters, and the only way to get them\n            // currently is to use assembly.\n            // solhint-disable-next-line no-inline-assembly\n            assembly {\n                r := mload(add(sig, 0x20))\n                s := mload(add(sig, 0x40))\n            }\n        } else {\n            revert(\"ECDSA: invalid signature length\");\n        }\n        return (r, s);\n    }\n}\n",
  "sourcePath": "C:\\Users\\wjxtc\\Vrf_contract\\solidity_project\\contracts\\verify.sol",
  "compiler": {
    "name": "solc",
    "version": "0.8.19+commit.7dd6d404.Emscripten.clang"
  },
  "schemaVersion": "3.4.16",
  "updatedAt": "2023-10-08T09:41:56.304Z",
  "devdoc": {
    "kind": "dev",
    "methods": {},
    "version": 1
  },
  "userdoc": {
    "kind": "user",
    "methods": {},
    "version": 1
  }
}