{
  "contractName": "Verify",
  "abi": [
    {
      "inputs": [
        {
          "internalType": "address",
          "name": "_registerAddress",
          "type": "address"
        }
      ],
      "stateMutability": "nonpayable",
      "type": "constructor"
    },
    {
      "anonymous": false,
      "inputs": [
        {
          "indexed": false,
          "internalType": "string",
          "name": "message",
          "type": "string"
        }
      ],
      "name": "Log",
      "type": "event"
    },
    {
      "anonymous": false,
      "inputs": [
        {
          "indexed": false,
          "internalType": "bytes",
          "name": "message",
          "type": "bytes"
        }
      ],
      "name": "LogBytes",
      "type": "event"
    },
    {
      "anonymous": false,
      "inputs": [
        {
          "indexed": false,
          "internalType": "bytes32",
          "name": "message",
          "type": "bytes32"
        }
      ],
      "name": "Logbytes32",
      "type": "event"
    },
    {
      "anonymous": false,
      "inputs": [
        {
          "indexed": false,
          "internalType": "uint8",
          "name": "message",
          "type": "uint8"
        }
      ],
      "name": "Loguint8",
      "type": "event"
    },
    {
      "anonymous": false,
      "inputs": [
        {
          "indexed": false,
          "internalType": "bytes32",
          "name": "randomNumber",
          "type": "bytes32"
        }
      ],
      "name": "RandomNumberRecorded",
      "type": "event"
    },
    {
      "anonymous": false,
      "inputs": [
        {
          "indexed": false,
          "internalType": "uint8",
          "name": "v",
          "type": "uint8"
        },
        {
          "indexed": false,
          "internalType": "bytes32",
          "name": "r",
          "type": "bytes32"
        },
        {
          "indexed": false,
          "internalType": "bytes32",
          "name": "s",
          "type": "bytes32"
        }
      ],
      "name": "VRSOutput",
      "type": "event"
    },
    {
      "inputs": [],
      "name": "foo",
      "outputs": [
        {
          "internalType": "contract Myecrecover",
          "name": "",
          "type": "address"
        }
      ],
      "stateMutability": "view",
      "type": "function",
      "constant": true
    },
    {
      "inputs": [],
      "name": "registerContract",
      "outputs": [
        {
          "internalType": "contract Register",
          "name": "",
          "type": "address"
        }
      ],
      "stateMutability": "view",
      "type": "function",
      "constant": true
    },
    {
      "inputs": [
        {
          "internalType": "address",
          "name": "applicationAddress",
          "type": "address"
        },
        {
          "internalType": "bytes32",
          "name": "messageHash",
          "type": "bytes32"
        },
        {
          "internalType": "bytes",
          "name": "signature",
          "type": "bytes"
        },
        {
          "internalType": "uint8",
          "name": "v",
          "type": "uint8"
        },
        {
          "internalType": "bytes32",
          "name": "expectedRandom",
          "type": "bytes32"
        }
      ],
      "name": "verify",
      "outputs": [
        {
          "internalType": "bool",
          "name": "",
          "type": "bool"
        }
      ],
      "stateMutability": "nonpayable",
      "type": "function"
    }
  ],
  "bytecode": "0x608060405234801561001057600080fd5b50604051610b95380380610b95833981810160405281019061003291906100db565b806000806101000a81548173ffffffffffffffffffffffffffffffffffffffff021916908373ffffffffffffffffffffffffffffffffffffffff16021790555050610108565b600080fd5b600073ffffffffffffffffffffffffffffffffffffffff82169050919050565b60006100a88261007d565b9050919050565b6100b88161009d565b81146100c357600080fd5b50565b6000815190506100d5816100af565b92915050565b6000602082840312156100f1576100f0610078565b5b60006100ff848285016100c6565b91505092915050565b610a7e806101176000396000f3fe608060405234801561001057600080fd5b50600436106100415760003560e01c80631a8194ac146100465780637feffff314610076578063c298557814610094575b600080fd5b610060600480360381019061005b91906105e5565b6100b2565b60405161006d9190610697565b60405180910390f35b61007e610270565b60405161008b9190610711565b60405180910390f35b61009c610294565b6040516100a9919061074d565b60405180910390f35b60008060008054906101000a900473ffffffffffffffffffffffffffffffffffffffff1673ffffffffffffffffffffffffffffffffffffffff1663857cdbb8886040518263ffffffff1660e01b815260040161010e9190610777565b600060405180830381865afa15801561012b573d6000803e3d6000fd5b505050506040513d6000823e3d601f19601f82011682018060405250810190610154919061082c565b905060006101638787876102ba565b905061016e82610326565b73ffffffffffffffffffffffffffffffffffffffff168173ffffffffffffffffffffffffffffffffffffffff16146101db576040517f08c379a00000000000000000000000000000000000000000000000000000000081526004016101d2906108d2565b60405180910390fd5b600086805190602001209050848114610229576040517f08c379a00000000000000000000000000000000000000000000000000000000081526004016102209061093e565b60405180910390fd5b7fbe20ecaeb0ba4e202bbb06a47b581ace9b214649bca1c51d4405a9630d7ea1dd81604051610258919061096d565b60405180910390a16001935050505095945050505050565b60008054906101000a900473ffffffffffffffffffffffffffffffffffffffff1681565b600160009054906101000a900473ffffffffffffffffffffffffffffffffffffffff1681565b60008060006102c885610342565b91509150600186858484604051600081526020016040526040516102ef9493929190610997565b6020604051602081039080840390855afa158015610311573d6000803e3d6000fd5b50505060206040510351925050509392505050565b6000808280519060200120905080600052600051915050919050565b60008060418351036103615760208301519150604083015190506103b9565b604083510361037d5760208301519150604083015190506103b8565b6040517f08c379a00000000000000000000000000000000000000000000000000000000081526004016103af90610a28565b60405180910390fd5b5b915091565b6000604051905090565b600080fd5b600080fd5b600073ffffffffffffffffffffffffffffffffffffffff82169050919050565b60006103fd826103d2565b9050919050565b61040d816103f2565b811461041857600080fd5b50565b60008135905061042a81610404565b92915050565b6000819050919050565b61044381610430565b811461044e57600080fd5b50565b6000813590506104608161043a565b92915050565b600080fd5b600080fd5b6000601f19601f8301169050919050565b7f4e487b7100000000000000000000000000000000000000000000000000000000600052604160045260246000fd5b6104b982610470565b810181811067ffffffffffffffff821117156104d8576104d7610481565b5b80604052505050565b60006104eb6103be565b90506104f782826104b0565b919050565b600067ffffffffffffffff82111561051757610516610481565b5b61052082610470565b9050602081019050919050565b82818337600083830152505050565b600061054f61054a846104fc565b6104e1565b90508281526020810184848401111561056b5761056a61046b565b5b61057684828561052d565b509392505050565b600082601f83011261059357610592610466565b5b81356105a384826020860161053c565b91505092915050565b600060ff82169050919050565b6105c2816105ac565b81146105cd57600080fd5b50565b6000813590506105df816105b9565b92915050565b600080600080600060a08688031215610601576106006103c8565b5b600061060f8882890161041b565b955050602061062088828901610451565b945050604086013567ffffffffffffffff811115610641576106406103cd565b5b61064d8882890161057e565b935050606061065e888289016105d0565b925050608061066f88828901610451565b9150509295509295909350565b60008115159050919050565b6106918161067c565b82525050565b60006020820190506106ac6000830184610688565b92915050565b6000819050919050565b60006106d76106d26106cd846103d2565b6106b2565b6103d2565b9050919050565b60006106e9826106bc565b9050919050565b60006106fb826106de565b9050919050565b61070b816106f0565b82525050565b60006020820190506107266000830184610702565b92915050565b6000610737826106de565b9050919050565b6107478161072c565b82525050565b6000602082019050610762600083018461073e565b92915050565b610771816103f2565b82525050565b600060208201905061078c6000830184610768565b92915050565b60005b838110156107b0578082015181840152602081019050610795565b60008484015250505050565b60006107cf6107ca846104fc565b6104e1565b9050828152602081018484840111156107eb576107ea61046b565b5b6107f6848285610792565b509392505050565b600082601f83011261081357610812610466565b5b81516108238482602086016107bc565b91505092915050565b600060208284031215610842576108416103c8565b5b600082015167ffffffffffffffff8111156108605761085f6103cd565b5b61086c848285016107fe565b91505092915050565b600082825260208201905092915050565b7f496e76616c6964207369676e6174757265000000000000000000000000000000600082015250565b60006108bc601183610875565b91506108c782610886565b602082019050919050565b600060208201905081810360008301526108eb816108af565b9050919050565b7f496e76616c69642072616e646f6d206e756d6265720000000000000000000000600082015250565b6000610928601583610875565b9150610933826108f2565b602082019050919050565b600060208201905081810360008301526109578161091b565b9050919050565b61096781610430565b82525050565b6000602082019050610982600083018461095e565b92915050565b610991816105ac565b82525050565b60006080820190506109ac600083018761095e565b6109b96020830186610988565b6109c6604083018561095e565b6109d3606083018461095e565b95945050505050565b7f45434453413a20696e76616c6964207369676e6174757265206c656e67746800600082015250565b6000610a12601f83610875565b9150610a1d826109dc565b602082019050919050565b60006020820190508181036000830152610a4181610a05565b905091905056fea2646970667358221220aa87d4c7e83c3232f61547dc207c6cd66dccd4d0afcb674afb59ca9086a66f2a64736f6c63430008130033",
  "immutableReferences": {},
  "source": "// SPDX-License-Identifier: MIT\npragma solidity ^0.8.19;\n\nimport \"./register.sol\";\n\ncontract Myecrecover {\n    constructor() {}\n    function myEcrecover(\n        bytes32 messageHash,\n        uint8 v,\n        bytes32 r,\n        bytes32 s\n    ) public pure returns (address) {\n        return ecrecover(messageHash, v, r, s);\n    }\n}\n\ncontract Verify {\n    Register public registerContract;\n\n    constructor(address _registerAddress) {\n        registerContract = Register(_registerAddress);\n    }\n    event RandomNumberRecorded(bytes32 randomNumber);\n    event VRSOutput(uint8 v, bytes32 r, bytes32 s);\n    event Log(string message);\n    event LogBytes(bytes message);\n    event Loguint8(uint8 message);\n    event Logbytes32(bytes32 message);\n\n    function verify(\n        address applicationAddress,\n        bytes32 messageHash,\n        bytes memory signature,\n        uint8 v,\n        bytes32 expectedRandom\n    ) public returns (bool) {\n        bytes memory registeredKey = registerContract.getPublicKey(\n            applicationAddress\n        );\n        address signer = recoverSigner(messageHash, signature, v);\n        require(\n            signer == publicKeyToAddress(registeredKey),\n            \"Invalid signature\"\n        );\n        bytes32 computedRandom = keccak256(signature);\n        require(computedRandom == expectedRandom, \"Invalid random number\");\n        emit RandomNumberRecorded(computedRandom);\n        return true;\n    }\n\n    function publicKeyToAddress(\n        bytes memory publicKey\n    ) internal pure returns (address addr) {\n        bytes32 hash = keccak256(publicKey);\n        assembly {\n            mstore(0, hash)\n            addr := mload(0)\n        }\n    }\n\n    Myecrecover public foo;\n    \n    function recoverSigner(\n        bytes32 messageHash,\n        bytes memory sig,\n        uint8 v\n    ) internal pure returns (address) {\n        (bytes32 r, bytes32 s) = splitSignature(sig);\n        return ecrecover(messageHash, v, r, s);\n    }\n\n    function splitSignature(\n        bytes memory sig\n    ) internal pure returns (bytes32 r, bytes32 s) {\n        // Check the signature length\n        // - case 65: r,s,v signature (standard)\n        // - case 64: r,vs signature (cf https://eips.ethereum.org/EIPS/eip-2098)\n        if (sig.length == 65) {\n            // ecrecover takes the signature parameters, and the only way to get them\n            // currently is to use assembly.\n            // solhint-disable-next-line no-inline-assembly\n            assembly {\n                r := mload(add(sig, 0x20))\n                s := mload(add(sig, 0x40))\n            }\n        } else if (sig.length == 64) {\n            // ecrecover takes the signature parameters, and the only way to get them\n            // currently is to use assembly.\n            // solhint-disable-next-line no-inline-assembly\n            assembly {\n                r := mload(add(sig, 0x20))\n                s := mload(add(sig, 0x40))\n            }\n        } else {\n            revert(\"ECDSA: invalid signature length\");\n        }\n        return (r, s);\n    }\n}\n",
  "sourcePath": "/home/farmer/Downloads/vrf_contract/solidity_project/contracts/verify.sol",
  "compiler": {
    "name": "solc",
    "version": "0.8.19+commit.7dd6d404.Emscripten.clang"
  },
  "schemaVersion": "3.4.16",
  "updatedAt": "2023-09-21T18:04:26.814Z",
  "networkType": "ethereum",
  "devdoc": {
    "kind": "dev",
    "methods": {},
    "version": 1
  },
  "userdoc": {
    "kind": "user",
    "methods": {},
    "version": 1
  }
}