{
  "contractName": "Verify",
  "abi": [
    {
      "inputs": [
        {
          "internalType": "address",
          "name": "_registerAddress",
          "type": "address"
        }
      ],
      "stateMutability": "nonpayable",
      "type": "constructor"
    },
    {
      "anonymous": false,
      "inputs": [
        {
          "indexed": false,
          "internalType": "bytes32",
          "name": "randomNumber",
          "type": "bytes32"
        }
      ],
      "name": "RandomNumberRecorded",
      "type": "event"
    },
    {
      "inputs": [],
      "name": "registerContract",
      "outputs": [
        {
          "internalType": "contract Register",
          "name": "",
          "type": "address"
        }
      ],
      "stateMutability": "view",
      "type": "function",
      "constant": true
    },
    {
      "inputs": [
        {
          "internalType": "address",
          "name": "applicationAddress",
          "type": "address"
        },
        {
          "internalType": "bytes32",
          "name": "messageHash",
          "type": "bytes32"
        },
        {
          "internalType": "bytes",
          "name": "signature",
          "type": "bytes"
        },
        {
          "internalType": "bytes32",
          "name": "expectedRandom",
          "type": "bytes32"
        }
      ],
      "name": "verify",
      "outputs": [
        {
          "internalType": "bool",
          "name": "",
          "type": "bool"
        }
      ],
      "stateMutability": "nonpayable",
      "type": "function"
    }
  ],
  "bytecode": "0x608060405234801561001057600080fd5b50604051610b0b380380610b0b833981810160405281019061003291906100db565b806000806101000a81548173ffffffffffffffffffffffffffffffffffffffff021916908373ffffffffffffffffffffffffffffffffffffffff16021790555050610108565b600080fd5b600073ffffffffffffffffffffffffffffffffffffffff82169050919050565b60006100a88261007d565b9050919050565b6100b88161009d565b81146100c357600080fd5b50565b6000815190506100d5816100af565b92915050565b6000602082840312156100f1576100f0610078565b5b60006100ff848285016100c6565b91505092915050565b6109f4806101176000396000f3fe608060405234801561001057600080fd5b50600436106100365760003560e01c80636ec608461461003b5780637feffff31461006b575b600080fd5b6100556004803603810190610050919061059e565b610089565b604051610062919061063c565b60405180910390f35b610073610245565b60405161008091906106b6565b60405180910390f35b60008060008054906101000a900473ffffffffffffffffffffffffffffffffffffffff1673ffffffffffffffffffffffffffffffffffffffff1663857cdbb8876040518263ffffffff1660e01b81526004016100e591906106e0565b600060405180830381865afa158015610102573d6000803e3d6000fd5b505050506040513d6000823e3d601f19601f8201168201806040525081019061012b9190610795565b905060006101398686610269565b9050610144826102d8565b73ffffffffffffffffffffffffffffffffffffffff168173ffffffffffffffffffffffffffffffffffffffff16146101b1576040517f08c379a00000000000000000000000000000000000000000000000000000000081526004016101a89061083b565b60405180910390fd5b6000858051906020012090508481146101ff576040517f08c379a00000000000000000000000000000000000000000000000000000000081526004016101f6906108a7565b60405180910390fd5b7fbe20ecaeb0ba4e202bbb06a47b581ace9b214649bca1c51d4405a9630d7ea1dd8160405161022e91906108d6565b60405180910390a160019350505050949350505050565b60008054906101000a900473ffffffffffffffffffffffffffffffffffffffff1681565b600080600080610278856102f4565b925092509250600186848484604051600081526020016040526040516102a1949392919061090d565b6020604051602081039080840390855afa1580156102c3573d6000803e3d6000fd5b50505060206040510351935050505092915050565b6000808280519060200120905080600052600051915050919050565b6000806000604184510361031f576020840151915060408401519050606084015160001a92506103a9565b604084510361036d57602084015191507f7fffffffffffffffffffffffffffffffffffffffffffffffffffffffffffffff6040850151169050601b604085015160001a60071c0192506103a8565b6040517f08c379a000000000000000000000000000000000000000000000000000000000815260040161039f9061099e565b60405180910390fd5b5b9193909250565b6000604051905090565b600080fd5b600080fd5b600073ffffffffffffffffffffffffffffffffffffffff82169050919050565b60006103ef826103c4565b9050919050565b6103ff816103e4565b811461040a57600080fd5b50565b60008135905061041c816103f6565b92915050565b6000819050919050565b61043581610422565b811461044057600080fd5b50565b6000813590506104528161042c565b92915050565b600080fd5b600080fd5b6000601f19601f8301169050919050565b7f4e487b7100000000000000000000000000000000000000000000000000000000600052604160045260246000fd5b6104ab82610462565b810181811067ffffffffffffffff821117156104ca576104c9610473565b5b80604052505050565b60006104dd6103b0565b90506104e982826104a2565b919050565b600067ffffffffffffffff82111561050957610508610473565b5b61051282610462565b9050602081019050919050565b82818337600083830152505050565b600061054161053c846104ee565b6104d3565b90508281526020810184848401111561055d5761055c61045d565b5b61056884828561051f565b509392505050565b600082601f83011261058557610584610458565b5b813561059584826020860161052e565b91505092915050565b600080600080608085870312156105b8576105b76103ba565b5b60006105c68782880161040d565b94505060206105d787828801610443565b935050604085013567ffffffffffffffff8111156105f8576105f76103bf565b5b61060487828801610570565b925050606061061587828801610443565b91505092959194509250565b60008115159050919050565b61063681610621565b82525050565b6000602082019050610651600083018461062d565b92915050565b6000819050919050565b600061067c610677610672846103c4565b610657565b6103c4565b9050919050565b600061068e82610661565b9050919050565b60006106a082610683565b9050919050565b6106b081610695565b82525050565b60006020820190506106cb60008301846106a7565b92915050565b6106da816103e4565b82525050565b60006020820190506106f560008301846106d1565b92915050565b60005b838110156107195780820151818401526020810190506106fe565b60008484015250505050565b6000610738610733846104ee565b6104d3565b9050828152602081018484840111156107545761075361045d565b5b61075f8482856106fb565b509392505050565b600082601f83011261077c5761077b610458565b5b815161078c848260208601610725565b91505092915050565b6000602082840312156107ab576107aa6103ba565b5b600082015167ffffffffffffffff8111156107c9576107c86103bf565b5b6107d584828501610767565b91505092915050565b600082825260208201905092915050565b7f496e76616c6964207369676e6174757265000000000000000000000000000000600082015250565b60006108256011836107de565b9150610830826107ef565b602082019050919050565b6000602082019050818103600083015261085481610818565b9050919050565b7f496e76616c69642072616e646f6d206e756d6265720000000000000000000000600082015250565b60006108916015836107de565b915061089c8261085b565b602082019050919050565b600060208201905081810360008301526108c081610884565b9050919050565b6108d081610422565b82525050565b60006020820190506108eb60008301846108c7565b92915050565b600060ff82169050919050565b610907816108f1565b82525050565b600060808201905061092260008301876108c7565b61092f60208301866108fe565b61093c60408301856108c7565b61094960608301846108c7565b95945050505050565b7f45434453413a20696e76616c6964207369676e6174757265206c656e67746800600082015250565b6000610988601f836107de565b915061099382610952565b602082019050919050565b600060208201905081810360008301526109b78161097b565b905091905056fea264697066735822122015438fecb0ce9dc5a68a387ecf9a7612570e6dec20a3b981a8d00e819c92b4fc64736f6c63430008130033",
  "immutableReferences": {},
  "source": "// SPDX-License-Identifier: MIT\npragma solidity ^0.8.19;\n\nimport \"./register.sol\";\n\ncontract Verify {\n    Register public registerContract;\n\n    constructor(address _registerAddress) {\n        registerContract = Register(_registerAddress);\n    }\n    event RandomNumberRecorded(bytes32 randomNumber);\n\n    function verify(\n        address applicationAddress,\n        bytes32 messageHash,\n        bytes memory signature,\n        bytes32 expectedRandom\n    ) public returns (bool) {\n        bytes memory registeredKey = registerContract.getPublicKey(\n            applicationAddress\n        );\n        address signer = recoverSigner(messageHash, signature);\n        require(\n            signer == publicKeyToAddress(registeredKey),\n            \"Invalid signature\"\n        );\n        bytes32 computedRandom = keccak256(signature);\n        require(computedRandom == expectedRandom, \"Invalid random number\");\n        emit RandomNumberRecorded(computedRandom);\n        return true;\n    }\n\n    function publicKeyToAddress(\n        bytes memory publicKey\n    ) internal pure returns (address addr) {\n        bytes32 hash = keccak256(publicKey);\n        assembly {\n            mstore(0, hash)\n            addr := mload(0)\n        }\n    }\n\n    function recoverSigner(\n        bytes32 messageHash,\n        bytes memory sig\n    ) internal pure returns (address) {\n        (uint8 v, bytes32 r, bytes32 s) = splitSignature(sig);\n        return ecrecover(messageHash, v, r, s);\n    }\n\n    function splitSignature(\n        bytes memory sig\n    ) internal pure returns (uint8 v, bytes32 r, bytes32 s) {\n        // Check the signature length\n        // - case 65: r,s,v signature (standard)\n        // - case 64: r,vs signature (cf https://eips.ethereum.org/EIPS/eip-2098)\n        if (sig.length == 65) {\n            // ecrecover takes the signature parameters, and the only way to get them\n            // currently is to use assembly.\n            // solhint-disable-next-line no-inline-assembly\n            assembly {\n                r := mload(add(sig, 0x20))\n                s := mload(add(sig, 0x40))\n                v := byte(0, mload(add(sig, 0x60)))\n            }\n        } else if (sig.length == 64) {\n            // ecrecover takes the signature parameters, and the only way to get them\n            // currently is to use assembly.\n            // solhint-disable-next-line no-inline-assembly\n            assembly {\n                r := mload(add(sig, 0x20))\n                s := and(\n                    mload(add(sig, 0x40)),\n                    0x7fffffffffffffffffffffffffffffffffffffffffffffffffffffffffffffff\n                )\n                v := add(shr(7, byte(0, mload(add(sig, 0x40)))), 27)\n            }\n        } else {\n            revert(\"ECDSA: invalid signature length\");\n        }\n        return (v, r, s);\n    }\n}\n",
  "sourcePath": "/home/ubuntu/vrf_contracts/solidity_project/contracts/verify.sol",
  "compiler": {
    "name": "solc",
    "version": "0.8.19+commit.7dd6d404.Emscripten.clang"
  },
  "schemaVersion": "3.4.15",
  "updatedAt": "2023-08-17T02:00:43.380Z",
  "networkType": "ethereum",
  "devdoc": {
    "kind": "dev",
    "methods": {},
    "version": 1
  },
  "userdoc": {
    "kind": "user",
    "methods": {},
    "version": 1
  }
}